{
  "_format": "hh-sol-artifact-1",
  "contractName": "ProductionCertificate",
  "sourceName": "contracts/ProductionCertificate.sol",
  "abi": [
    {
      "inputs": [],
      "stateMutability": "nonpayable",
      "type": "constructor"
    },
    {
      "inputs": [],
      "name": "AccessControlBadConfirmation",
      "type": "error"
    },
    {
      "inputs": [
        {
          "internalType": "address",
          "name": "account",
          "type": "address"
        },
        {
          "internalType": "bytes32",
          "name": "neededRole",
          "type": "bytes32"
        }
      ],
      "name": "AccessControlUnauthorizedAccount",
      "type": "error"
    },
    {
      "anonymous": false,
      "inputs": [
        {
          "indexed": true,
          "internalType": "string",
          "name": "hash",
          "type": "string"
        },
        {
          "indexed": false,
          "internalType": "string",
          "name": "studentName",
          "type": "string"
        },
        {
          "indexed": false,
          "internalType": "string",
          "name": "course",
          "type": "string"
        },
        {
          "indexed": false,
          "internalType": "uint256",
          "name": "issuedDate",
          "type": "uint256"
        }
      ],
      "name": "CertificateAdded",
      "type": "event"
    },
    {
      "anonymous": false,
      "inputs": [
        {
          "indexed": true,
          "internalType": "string",
          "name": "hash",
          "type": "string"
        }
      ],
      "name": "CertificateRevoked",
      "type": "event"
    },
    {
      "anonymous": false,
      "inputs": [
        {
          "indexed": true,
          "internalType": "bytes32",
          "name": "role",
          "type": "bytes32"
        },
        {
          "indexed": true,
          "internalType": "bytes32",
          "name": "previousAdminRole",
          "type": "bytes32"
        },
        {
          "indexed": true,
          "internalType": "bytes32",
          "name": "newAdminRole",
          "type": "bytes32"
        }
      ],
      "name": "RoleAdminChanged",
      "type": "event"
    },
    {
      "anonymous": false,
      "inputs": [
        {
          "indexed": true,
          "internalType": "bytes32",
          "name": "role",
          "type": "bytes32"
        },
        {
          "indexed": true,
          "internalType": "address",
          "name": "account",
          "type": "address"
        },
        {
          "indexed": true,
          "internalType": "address",
          "name": "sender",
          "type": "address"
        }
      ],
      "name": "RoleGranted",
      "type": "event"
    },
    {
      "anonymous": false,
      "inputs": [
        {
          "indexed": true,
          "internalType": "bytes32",
          "name": "role",
          "type": "bytes32"
        },
        {
          "indexed": true,
          "internalType": "address",
          "name": "account",
          "type": "address"
        },
        {
          "indexed": true,
          "internalType": "address",
          "name": "sender",
          "type": "address"
        }
      ],
      "name": "RoleRevoked",
      "type": "event"
    },
    {
      "inputs": [],
      "name": "DEFAULT_ADMIN_ROLE",
      "outputs": [
        {
          "internalType": "bytes32",
          "name": "",
          "type": "bytes32"
        }
      ],
      "stateMutability": "view",
      "type": "function"
    },
    {
      "inputs": [],
      "name": "DEPARTMENT_ADMIN_ROLE",
      "outputs": [
        {
          "internalType": "bytes32",
          "name": "",
          "type": "bytes32"
        }
      ],
      "stateMutability": "view",
      "type": "function"
    },
    {
      "inputs": [],
      "name": "SUPER_ADMIN_ROLE",
      "outputs": [
        {
          "internalType": "bytes32",
          "name": "",
          "type": "bytes32"
        }
      ],
      "stateMutability": "view",
      "type": "function"
    },
    {
      "inputs": [],
      "name": "UNIVERSITY_ADMIN_ROLE",
      "outputs": [
        {
          "internalType": "bytes32",
          "name": "",
          "type": "bytes32"
        }
      ],
      "stateMutability": "view",
      "type": "function"
    },
    {
      "inputs": [
        {
          "internalType": "string",
          "name": "_hash",
          "type": "string"
        },
        {
          "internalType": "string",
          "name": "_studentName",
          "type": "string"
        },
        {
          "internalType": "string",
          "name": "_course",
          "type": "string"
        },
        {
          "internalType": "uint256",
          "name": "_issuedDate",
          "type": "uint256"
        }
      ],
      "name": "addCertificate",
      "outputs": [],
      "stateMutability": "nonpayable",
      "type": "function"
    },
    {
      "inputs": [
        {
          "internalType": "string",
          "name": "",
          "type": "string"
        }
      ],
      "name": "certificateExists",
      "outputs": [
        {
          "internalType": "bool",
          "name": "",
          "type": "bool"
        }
      ],
      "stateMutability": "view",
      "type": "function"
    },
    {
      "inputs": [
        {
          "internalType": "string",
          "name": "",
          "type": "string"
        }
      ],
      "name": "certificates",
      "outputs": [
        {
          "internalType": "string",
          "name": "studentName",
          "type": "string"
        },
        {
          "internalType": "string",
          "name": "course",
          "type": "string"
        },
        {
          "internalType": "uint256",
          "name": "issuedDate",
          "type": "uint256"
        },
        {
          "internalType": "bool",
          "name": "isValid",
          "type": "bool"
        }
      ],
      "stateMutability": "view",
      "type": "function"
    },
    {
      "inputs": [
        {
          "internalType": "bytes32",
          "name": "role",
          "type": "bytes32"
        }
      ],
      "name": "getRoleAdmin",
      "outputs": [
        {
          "internalType": "bytes32",
          "name": "",
          "type": "bytes32"
        }
      ],
      "stateMutability": "view",
      "type": "function"
    },
    {
      "inputs": [
        {
          "internalType": "bytes32",
          "name": "role",
          "type": "bytes32"
        },
        {
          "internalType": "address",
          "name": "account",
          "type": "address"
        }
      ],
      "name": "grantRole",
      "outputs": [],
      "stateMutability": "nonpayable",
      "type": "function"
    },
    {
      "inputs": [
        {
          "internalType": "bytes32",
          "name": "role",
          "type": "bytes32"
        },
        {
          "internalType": "address",
          "name": "account",
          "type": "address"
        }
      ],
      "name": "hasRole",
      "outputs": [
        {
          "internalType": "bool",
          "name": "",
          "type": "bool"
        }
      ],
      "stateMutability": "view",
      "type": "function"
    },
    {
      "inputs": [
        {
          "internalType": "bytes32",
          "name": "role",
          "type": "bytes32"
        },
        {
          "internalType": "address",
          "name": "callerConfirmation",
          "type": "address"
        }
      ],
      "name": "renounceRole",
      "outputs": [],
      "stateMutability": "nonpayable",
      "type": "function"
    },
    {
      "inputs": [
        {
          "internalType": "string",
          "name": "_hash",
          "type": "string"
        }
      ],
      "name": "revokeCertificate",
      "outputs": [],
      "stateMutability": "nonpayable",
      "type": "function"
    },
    {
      "inputs": [
        {
          "internalType": "bytes32",
          "name": "role",
          "type": "bytes32"
        },
        {
          "internalType": "address",
          "name": "account",
          "type": "address"
        }
      ],
      "name": "revokeRole",
      "outputs": [],
      "stateMutability": "nonpayable",
      "type": "function"
    },
    {
      "inputs": [
        {
          "internalType": "bytes4",
          "name": "interfaceId",
          "type": "bytes4"
        }
      ],
      "name": "supportsInterface",
      "outputs": [
        {
          "internalType": "bool",
          "name": "",
          "type": "bool"
        }
      ],
      "stateMutability": "view",
      "type": "function"
    },
    {
      "inputs": [
        {
          "internalType": "string",
          "name": "_hash",
          "type": "string"
        }
      ],
      "name": "verifyCertificate",
      "outputs": [
        {
          "components": [
            {
              "internalType": "string",
              "name": "studentName",
              "type": "string"
            },
            {
              "internalType": "string",
              "name": "course",
              "type": "string"
            },
            {
              "internalType": "uint256",
              "name": "issuedDate",
              "type": "uint256"
            },
            {
              "internalType": "bool",
              "name": "isValid",
              "type": "bool"
            }
          ],
          "internalType": "struct ProductionCertificate.Certificate",
          "name": "",
          "type": "tuple"
        }
      ],
      "stateMutability": "view",
      "type": "function"
    }
  ],
  "bytecode": "0x60806040523480156200001157600080fd5b506200002d6000805160206200120183398151915233620000c0565b5062000049600080516020620011e183398151915233620000c0565b50620000656000805160206200122183398151915233620000c0565b5062000090600080516020620011e1833981519152600080516020620012018339815191526200016f565b620000ba60008051602062001221833981519152600080516020620012018339815191526200016f565b620001ba565b6000828152602081815260408083206001600160a01b038516845290915281205460ff1662000165576000838152602081815260408083206001600160a01b03861684529091529020805460ff191660011790556200011c3390565b6001600160a01b0316826001600160a01b0316847f2f8788117e7eff1d82e926ec794901d17c78024a50270940304540a733656f0d60405160405180910390a450600162000169565b5060005b92915050565b600082815260208190526040808220600101805490849055905190918391839186917fbd79b86ffe0ab8e8776151514217cd7cacd52c909f66475c3af44e129f0b00ff9190a4505050565b61101780620001ca6000396000f3fe608060405234801561001057600080fd5b50600436106100f55760003560e01c80634460bdd6116100975780639242ded8116100665780639242ded814610260578063a217fddf14610287578063cc1088d31461028f578063d547741f146102a257600080fd5b80634460bdd6146101e35780638b23d8751461020a5780638f2b91ea1461022a57806391d148541461024d57600080fd5b806319263101116100d35780631926310114610165578063248a9ca31461019a5780632f2ff15d146101bd57806336568abe146101d057600080fd5b806301ffc9a7146100fa5780630655f03714610122578063142e154214610150575b600080fd5b61010d610108366004610b67565b6102b5565b60405190151581526020015b60405180910390f35b61010d610130366004610c3b565b805160208183018101805160028252928201919093012091525460ff1681565b61016361015e366004610c3b565b6102ec565b005b61018c7f04cf686f6cecf1cc6949bf887ddf308bd14279793ef5495bbdabe085dbc2824c81565b604051908152602001610119565b61018c6101a8366004610c78565b60009081526020819052604090206001015490565b6101636101cb366004610c91565b610471565b6101636101de366004610c91565b61049c565b61018c7f7613a25ecc738585a232ad50a301178f12b3ba8887d13e138b523c4269c4768981565b61021d610218366004610c3b565b6104d4565b6040516101199190610d1d565b61023d610238366004610c3b565b6106d5565b6040516101199493929190610d79565b61010d61025b366004610c91565b61081c565b61018c7f40e101658708f6dd6953ad16e8e3c20bbc7695229b7c88032504e6609d9ceb6781565b61018c600081565b61016361029d366004610db7565b610845565b6101636102b0366004610c91565b6109fb565b60006001600160e01b03198216637965db0b60e01b14806102e657506301ffc9a760e01b6001600160e01b03198316145b92915050565b7f04cf686f6cecf1cc6949bf887ddf308bd14279793ef5495bbdabe085dbc2824c61031681610a20565b6002826040516103269190610e47565b9081526040519081900360200190205460ff1661038a5760405162461bcd60e51b815260206004820152601a60248201527f436572746966696361746520646f6573206e6f7420657869737400000000000060448201526064015b60405180910390fd5b60018260405161039a9190610e47565b9081526040519081900360200190206003015460ff166103fc5760405162461bcd60e51b815260206004820152601e60248201527f436572746966696361746520697320616c7265616479207265766f6b656400006044820152606401610381565b600060018360405161040e9190610e47565b908152604051908190036020018120600301805492151560ff199093169290921790915561043d908390610e47565b604051908190038120907f266095b5af7e2323760fef151f1d78896740cd2cc1b73a6357ff9e4c3fdae74090600090a25050565b60008281526020819052604090206001015461048c81610a20565b6104968383610a2d565b50505050565b6001600160a01b03811633146104c55760405163334bd91960e11b815260040160405180910390fd5b6104cf8282610abf565b505050565b61050160405180608001604052806060815260200160608152602001600081526020016000151581525090565b6002826040516105119190610e47565b9081526040519081900360200190205460ff166105685760405162461bcd60e51b815260206004820152601560248201527410d95c9d1a599a58d85d19481b9bdd08199bdd5b99605a1b6044820152606401610381565b6001826040516105789190610e47565b90815260200160405180910390206040518060800160405290816000820180546105a190610e63565b80601f01602080910402602001604051908101604052809291908181526020018280546105cd90610e63565b801561061a5780601f106105ef5761010080835404028352916020019161061a565b820191906000526020600020905b8154815290600101906020018083116105fd57829003601f168201915b5050505050815260200160018201805461063390610e63565b80601f016020809104026020016040519081016040528092919081815260200182805461065f90610e63565b80156106ac5780601f10610681576101008083540402835291602001916106ac565b820191906000526020600020905b81548152906001019060200180831161068f57829003601f168201915b50505091835250506002820154602082015260039091015460ff16151560409091015292915050565b80516020818301810180516001825292820191909301209152805481906106fb90610e63565b80601f016020809104026020016040519081016040528092919081815260200182805461072790610e63565b80156107745780601f1061074957610100808354040283529160200191610774565b820191906000526020600020905b81548152906001019060200180831161075757829003601f168201915b50505050509080600101805461078990610e63565b80601f01602080910402602001604051908101604052809291908181526020018280546107b590610e63565b80156108025780601f106107d757610100808354040283529160200191610802565b820191906000526020600020905b8154815290600101906020018083116107e557829003601f168201915b50505050600283015460039093015491929160ff16905084565b6000918252602082815260408084206001600160a01b0393909316845291905290205460ff1690565b7f04cf686f6cecf1cc6949bf887ddf308bd14279793ef5495bbdabe085dbc2824c61086f81610a20565b60028560405161087f9190610e47565b9081526040519081900360200190205460ff16156108df5760405162461bcd60e51b815260206004820152601f60248201527f4365727469666963617465206861736820616c726561647920657869737473006044820152606401610381565b6040518060800160405280858152602001848152602001838152602001600115158152506001866040516109139190610e47565b908152604051908190036020019020815181906109309082610eeb565b50602082015160018201906109459082610eeb565b506040820151816002015560608201518160030160006101000a81548160ff02191690831515021790555090505060016002866040516109859190610e47565b908152604051908190036020018120805492151560ff19909316929092179091556109b1908690610e47565b60405180910390207fcee9eb3edbf1090be14b3b516aaec0549dd9f36a6d3cfa31fb24c39b8546e1f38585856040516109ec93929190610fab565b60405180910390a25050505050565b600082815260208190526040902060010154610a1681610a20565b6104968383610abf565b610a2a8133610b2a565b50565b6000610a39838361081c565b610ab7576000838152602081815260408083206001600160a01b03861684529091529020805460ff19166001179055610a6f3390565b6001600160a01b0316826001600160a01b0316847f2f8788117e7eff1d82e926ec794901d17c78024a50270940304540a733656f0d60405160405180910390a45060016102e6565b5060006102e6565b6000610acb838361081c565b15610ab7576000838152602081815260408083206001600160a01b0386168085529252808320805460ff1916905551339286917ff6391f5c32d9c69d2a47ea670b442974b53935d1edc7fd64eb21e047a839171b9190a45060016102e6565b610b34828261081c565b610b635760405163e2517d3f60e01b81526001600160a01b038216600482015260248101839052604401610381565b5050565b600060208284031215610b7957600080fd5b81356001600160e01b031981168114610b9157600080fd5b9392505050565b634e487b7160e01b600052604160045260246000fd5b600082601f830112610bbf57600080fd5b813567ffffffffffffffff80821115610bda57610bda610b98565b604051601f8301601f19908116603f01168101908282118183101715610c0257610c02610b98565b81604052838152866020858801011115610c1b57600080fd5b836020870160208301376000602085830101528094505050505092915050565b600060208284031215610c4d57600080fd5b813567ffffffffffffffff811115610c6457600080fd5b610c7084828501610bae565b949350505050565b600060208284031215610c8a57600080fd5b5035919050565b60008060408385031215610ca457600080fd5b8235915060208301356001600160a01b0381168114610cc257600080fd5b809150509250929050565b60005b83811015610ce8578181015183820152602001610cd0565b50506000910152565b60008151808452610d09816020860160208601610ccd565b601f01601f19169290920160200192915050565b602081526000825160806020840152610d3960a0840182610cf1565b90506020840151601f19848303016040850152610d568282610cf1565b915050604084015160608401526060840151151560808401528091505092915050565b608081526000610d8c6080830187610cf1565b8281036020840152610d9e8187610cf1565b6040840195909552505090151560609091015292915050565b60008060008060808587031215610dcd57600080fd5b843567ffffffffffffffff80821115610de557600080fd5b610df188838901610bae565b95506020870135915080821115610e0757600080fd5b610e1388838901610bae565b94506040870135915080821115610e2957600080fd5b50610e3687828801610bae565b949793965093946060013593505050565b60008251610e59818460208701610ccd565b9190910192915050565b600181811c90821680610e7757607f821691505b602082108103610e9757634e487b7160e01b600052602260045260246000fd5b50919050565b601f8211156104cf57600081815260208120601f850160051c81016020861015610ec45750805b601f850160051c820191505b81811015610ee357828155600101610ed0565b505050505050565b815167ffffffffffffffff811115610f0557610f05610b98565b610f1981610f138454610e63565b84610e9d565b602080601f831160018114610f4e5760008415610f365750858301515b600019600386901b1c1916600185901b178555610ee3565b600085815260208120601f198616915b82811015610f7d57888601518255948401946001909101908401610f5e565b5085821015610f9b5787850151600019600388901b60f8161c191681555b5050505050600190811b01905550565b606081526000610fbe6060830186610cf1565b8281036020840152610fd08186610cf1565b91505082604083015294935050505056fea26469706673582212201ebec462bd1b2e3ad9442e5e68eaaa459ad1eb21c58adfa8024527ae046de24e64736f6c6343000814003304cf686f6cecf1cc6949bf887ddf308bd14279793ef5495bbdabe085dbc2824c7613a25ecc738585a232ad50a301178f12b3ba8887d13e138b523c4269c4768940e101658708f6dd6953ad16e8e3c20bbc7695229b7c88032504e6609d9ceb67",
  "linkReferences": {},
  "deployedLinkReferences": {}
}